S00D0000736572766F2E73726563E8
S11300000C9434000C943E000C943E000C943E007E
S11300100C943E000C943E000C943E000C943E0064
S11300200C943E000C943E000C943E000C943E0054
S11300300C943E000C943E000C943E000C943E0044
S11300400C943E000C943E000C943E000C943E0034
S11300500C943E000C943E000C943E000C943E0024
S11300600C943E000C943E0011241FBECFEFD8E048
S1130070DEBFCDBF0E9468000C9444020C940000C3
S11300801092C50083E38093C40088E18093C1008B
S113009086E08093C2000895E0ECF0E0908195FF43
S11300A0FDCF8093C6000895ECE7F0E09081907F47
S11300B08F70892B8083EAE7F0E0808180648083FD
S11300C0808186FDFDCF809178009091790008951C
S11300D0E0E8F0E08081826A8083E1E8F0E08081FA
S11300E08A6180838FE19EE49093870080938600E9
S11300F08FEF84B9ECE7F0E0808180648083EAE7E5
S1130100F0E08081836880830E9440000F2EF4E633
S1130110CF2ED12CF02D0AE010E00F2EFEEE8F2E04
S1130120F02D6894992491F80F2EF3EEAF2EF02D54
S11301306894BB24B3F80F2EF8E8EF2EF12CF02DC1
S113014080E00E945400BC0180E090E00E94210104
S113015020E030E040E250E40E9487010E94EB007E
S1130160EB01CB01B6010E941C02CB01B8010E9435
S11301701C02805D0E944C00CE01B8010E941C024A
S1130180782ECB01B8010E941C02805D0E944C00B5
S11301908EE20E944C0080E3870D0E944C008AE0AE
S11301A00E944C00CE3E22E0D20714F4C82DD92D73
S11301B0C43EE8E0DE0714F0CA2DDB2DF701D1833D
S11301C0C083FFEF20E782E0F15020408040E1F758
S11301D000C00000B5CF0E94F2006894B1110C94E5
S11301E0810108950E94660188F09F5798F0B92F05
S11301F09927B751B0F0E1F0660F771F881F991F58
S11302001AF0BA95C9F714C0B13091F00E94800178
S1130210B1E008950C948001672F782F8827B85F88
S113022039F0B93FCCF3869577956795B395D9F7AF
S11302303EF490958095709561957F4F8F4F9F4FB9
S11302400895E89409C097FB3EF4909580957095C5
S113025061957F4F8F4F9F4F9923A9F0F92F96E90E
S1130260BB279395F695879577956795B795F11183
S1130270F8CFFAF4BB0F11F460FF1BC06F5F7F4F20
S11302808F4F9F4F16C0882311F096E911C0772332
S113029021F09EE8872F762F05C0662371F096E83B
S11302A0862F70E060E02AF09A95660F771F881F0A
S11302B0DAF7880F9695879597F9089557FD905822
S11302C0440F551F59F05F3F71F04795880F97FB16
S11302D0991F61F09F3F79F08795089512161306D0
S11302E01406551FF2CF4695F1DF08C016161706FF
S11302F01806991FF1CF8695710561050894089534
S1130300E894BB2766277727CB0197F908950E94C5
S11303109A010C940B020E94FD0138F00E94040221
S113032020F0952311F00C94F4010C94FA0111249B
S11303300C9481010E945E0170F3959FC1F3950FA7
S113034050E0551F629FF001729FBB27F00DB11D55
S1130350639FAA27F00DB11DAA1F649F6627B00DE5
S1130360A11D661F829F2227B00DA11D621F739FCE
S1130370B00DA11D621F839FA00D611D221F749FDC
S11303803327A00D611D231F849F600D211D822F23
S1130390762F6A2F11249F5750409AF0F1F088234A
S11303A04AF0EE0FFF1FBB1F661F771F881F915077
S11303B05040A9F79E3F510580F00C94F4010C9431
S11303C081015F3FE4F3983ED4F386957795679572
S11303D0B795F795E7959F5FC1F7FE2B880F911DA1
S11303E09695879597F9089597F99F6780E870E047
S11303F060E008959FEF80EC089500240A94161697
S1130400170618060906089500240A9412161306FE
S1130410140605060895092E0394000C11F488238C
S113042052F0BB0F40F4BF2B11F460FF04C06F5FA8
S11304307F4F8F4F9F4F089597FB072E16F400941C
S113044007D077FD09D00E94300207FC05D03EF4A6
S1130450909581959F4F0895709561957F4F08956C
S1130460AA1BBB1B51E107C0AA1FBB1FA617B707D6
S113047010F0A61BB70B881F991F5A95A9F78095F2
S10F04809095BC01CD010895F894FFCFC5
S9030000FC
