:100000000C9434000C943E000C943E000C943E0082
:100010000C943E000C943E000C943E000C943E0068
:100020000C943E000C943E000C943E000C943E0058
:100030000C943E000C943E000C943E000C943E0048
:100040000C943E000C943E000C943E000C943E0038
:100050000C943E000C943E000C943E000C943E0028
:100060000C943E000C943E0011241FBECFEFD8E04C
:10007000DEBFCDBF0E9468000C94DB000C94000032
:100080001092C50083E38093C40088E18093C1008F
:1000900086E08093C2000895E0ECF0E0908195FF47
:1000A000FDCF8093C6000895ECE7F0E09081907F4B
:1000B0008F70892B8083EAE7F0E080818064808301
:1000C000808186FDFDCF8091780090917900089520
:1000D000ECE7F0E0808180648083EAE7F0E08081F3
:1000E000836880830E9440000F2EF4E6EF2EF12CEF
:1000F000F02D0AE010E08EE20E944C0080E00E94A9
:100100005400EC01CC0FDD1FCC0FDD1FC80FD91F31
:10011000CE01B7010E94B300CB01B8010E94B30029
:10012000805D0E944C00CE01B8010E94B300C82F30
:10013000CB01B8010E94B300805D0E944C008EE2AA
:100140000E944C0080E38C0F0E944C008AE00E94C9
:100150004C002FEF89E698E1215080409040E1F774
:1001600000C00000C8CF97FB072E16F4009407D0FC
:1001700077FD09D00E94C70007FC05D03EF490959A
:1001800081959F4F0895709561957F4F0895AA1BA3
:10019000BB1B51E107C0AA1FBB1FA617B70710F072
:1001A000A61BB70B881F991F5A95A9F780959095A4
:0A01B000BC01CD010895F894FFCFC3
:00000001FF
