:020000020000FC
:10000000B2E0BEBFA2E2ADBFD4E0C0E0F6E0E0E007
:10001000B0E0BF93B395BF3F11F00C940900BF93BC
:10002000BA95B33D11F00C940F00BF93B0E0A0E07F
:1000300000E0B23011F00C941F00A23219F11F91B0
:10004000BEB7ADB7012F003059F0043091F0033046
:1000500081F0023071F0013061F005500C94230002
:10006000DEBFCDBF1F93DEB7CDB7BEBFADBF0C9413
:100070001800FEBFEDBF1F93FEB7EDB7BEBFADBF0B
:100080000C94180000E010E020E030E060E0DEBFFB
:10009000CDBFD43011F00C945400C03011F00C944A
:1000A000540061E00C9464005F91DEB7CDB750302E
:1000B00059F0B12FA02F4A2FA50FA41714F40C94B8
:1000C0006200B3951B2F0A2FFEBFEDBFF63011F073
:1000D0000C947200E03011F00C9472006130A1F0C9
:1000E0000C9447005F91FEB7EDB75030E9F2B32FA3
:1000F000A22F4A2FA50F4A1714F40C948000B39531
:0A0100003B2F2A2F0C9447000FEF4D
:00000001FF
