:100000000C9434000C943E000C943E000C943E0082
:100010000C943E000C943E000C943E000C943E0068
:100020000C943E000C943E000C943E000C943E0058
:100030000C943E000C943E000C943E000C943E0048
:100040000C943E000C943E000C943E000C943E0038
:100050000C943E000C943E000C943E000C943E0028
:100060000C943E000C943E0011241FBECFEFD8E04C
:10007000DEBFCDBF0E9468000C9437010C940000D5
:100080001092C50083E38093C40088E18093C1008F
:1000900086E08093C2000895E0ECF0E0908195FF47
:1000A000FDCF8093C6000895ECE7F0E09081907F4B
:1000B0008F70892B8083EAE7F0E080818064808301
:1000C000808186FDFDCF8091780090917900089520
:1000D0008FEF84B9ECE7F0E0808180648083EAE709
:1000E000F0E08081836880830E944000E1E8F0E0D6
:1000F00080818B60808310928500109284000F2E87
:10010000F8E8EF2EF12CF02D0F2EF6E64F2EF02D05
:100110000F2EFCEC5F2EF02D0F2EF9E96F2EF02D37
:100120000F2EF3E37F2EF02D0F2EF0E1AF2EF7E22E
:10013000BF2EF02D0AE010E00F2EF8EECF2EF3E0E8
:10014000DF2EF02D0F2EF4E68F2E912CF02D80E077
:100150000E945400EC01CC0FDD1F880F991F880FFF
:10016000991F880F991FC80FD91FF701D183C0832A
:10017000B19B53C045B88FE19EE40197F1F700C0F1
:10018000000055B8EFE1FEE43197F1F700C0000040
:1001900065B88FE19EE40197F1F700C0000075B8E3
:1001A000EFE1FEE43197F1F700C00000CE01B501A8
:1001B0000E940F01CB01B8010E940F01805D0E94D7
:1001C0004C00CE01B6010E940F01CB01B8010E9484
:1001D0000F01805D0E944C00CE01B4010E940F010E
:1001E000CB01B8010E940F01805D0E944C00CE013E
:1001F000B8010E940F01C82FCB01B8010E940F0166
:10020000805D0E944C008EE20E944C0080E38C0FC7
:100210000E944C008AE00E944C00B19A98CF97FB54
:10022000072E16F4009407D077FD09D00E94230111
:1002300007FC05D03EF4909581959F4F08957095E9
:1002400061957F4F0895AA1BBB1B51E107C0AA1FF0
:10025000BB1FA617B70710F0A61BB70B881F991F67
:100260005A95A9F780959095BC01CD010895F89411
:02027000FFCFBE
:00000001FF
